:100000000C9418000C9420000C9420000C942000F8
:100010000C9420000C9420000C9420000C942000E0
:100020000C9420000C9420000C9420000C942100CF
:1000300008E00EBF0FEF0DBF11240E942E00FFCF6E
:10004000FFCF8F938FB78F939F9385B190E28927CE
:1000500085B99F918F918FBF8F91189510928500D0
:100060001092840010928000109281008AE78093A1
:10007000890081E180938800809181008C60809369
:100080008100259AF89482E080936F0078942D9AED
:02009000FFCFA0
:0400000300000030C9
:00000001FF
